:100000000C949F010C94E3010C94FE010C94E30109
:100010000C94E3010C94E3010C94E3010C94E301D0
:100020000C94E3010C94E3010C9487150C94E30108
:100030000C94E3010C94E3010C94E3010C94E301B0
:100040000C94E3010C94E3010C94E3010C94E301A0
:100050000C94E301940B940BC60BC60B130C470DC9
:10006000470D470D310CC60CD70CD70C370D470D7B
:10007000470D400DE30DE30DF50DF50DEC0DF50D00
:10008000F50DF50DE30DE30DF10DF50DF50DF10D8C
:10009000290035001E001F0020002100220023003F
:1000A00024002500260027002D002E002A003900FC
:1000B0002B0014001A000800150017001C0018007F
:1000C0000C00120013002F00300031003E000251DE
:1000D00004001600070009000A000B000D000E00C6
:1000E0000F0033003400000028000000E1001D0074
:1000F0001B00060019000151050011001000360018
:1001000037003800E500E5000000E0000000E200F4
:1001100000002C00E30000002C000000E6000000BE
:100120000000E4000000010035003A003B003C0004
:100130003D003E003F0040004100420043004400BB
:1001400045004C00010001004A0052004D004B00E8
:100150000100010001000100010001000100010097
:10016000010001000100500051004F004E0001004D
:100170000100010001000100010001000000010078
:100180000000010001000100010001000100AA00BF
:10019000A900A800AC00AB00AE0001000100000007
:1001A000010000000100000001000100000001004A
:1001B000000001000000000001000000000000003D
:1001C000000000000000000000000000000000002F
:1001D000000000000000000000000000000000001F
:1001E00000000000000000000000000052000000BD
:1001F00000000000000000000000010000000000FE
:100200000000000000000000500051004F000000FE
:1002100000000000000000000000000000000000DE
:1002200000000100000000000000000000000000CD
:1002300000000000000000000000000000000000BE
:1002400000000000000000000000000000000000AE
:10025000000009023B00020100A0FA0904000001AD
:10026000030101000921010100012240000705816D
:100270000308000109040100010300000009210135
:10028000010001223200070583030800011201105A
:1002900001000000088CA6BDE20100010203010478
:1002A00003300000000E0353006500730061006D11
:1002B000006500000010036B0062002D0065006CFB
:1002C000006D006F0000000403090405010980A10E
:1002D00001850319012AB700150126B7009501759C
:1002E000108100C0050C0901A101850419012AA093
:1002F00002150126A002950175108100C0050109B3
:1003000006A101050719E029E715002501950875E3
:100310000181029501750881030507190029FF1560
:100320000026FF00950675088100050819012905BA
:10033000950575019102950175039103C000112483
:100340001FBECFE5D8E0DEBFCDBF04B603FE24C09C
:100350008091790290917A02A0917B02B0917C0207
:100360008730904BA740B04BB9F4109279021092AD
:100370007A0210927B0210927C0214BE84B7877FAF
:1003800084BF0FB6F894A89581B5886181BD11BC72
:100390000FBEE0E0F8E3099510E0A0E6B0E0EEE67D
:1003A000F2E302C005900D92A43EB107D9F722E016
:1003B000A4EEB0E001C01D92A937B207E1F70E9498
:1003C000F8150C9435190C940000A82FB92F80E073
:1003D00090E041E050EA609530E009C02D9182271D
:1003E0009795879510F084279527305EC8F36F5F47
:1003F000A8F30895EADF8D939D930895CF93CFB727
:10040000CF93DF93C395839BE9F7839B10C0839BB6
:100410000EC0839B0CC0839B0AC0839B08C0839B38
:1004200006C0C0915002C395C09350028EC06F9316
:10043000C0914F02DD27C95ADD4F2F9365E5839B9D
:1004400003C02F916F91E1CF0F931F934F9320E043
:1004500040E15F9300B30C7003FB27F93F9350E03A
:100460003BE039C01C7040642F77012F5F5F1EC0D6
:10047000406810B31C702F7752501FC0406400B307
:100480002F770C70D1F15F5F00C023C0406210B3C2
:100490002F771C7091F15F5F00C025C00C70102792
:1004A000515012F45D5F0000115027952C3F10B39E
:1004B000C8F61C700127015027952C3FC8F642272B
:1004C000499300B30C7010274F73115027952C3FA0
:1004D000A8F64695469510B31C7079F00127015097
:1004E00027952C3F98F66B5A60F3315000B3B0F665
:1004F00000C010E81ABF00271CC03B503195C31B39
:10050000D04010E81ABF0881033C21F10B3411F1EF
:1005100020914C021981110F1213EDCF4A81441F13
:10052000093679F10D3211F0013E29F74F7009F0CB
:10053000042F009355023F915F914F911F910F91AE
:100540002F916F91CAB7C7FD5DCFDF91CF91CFBF1C
:10055000CF91189520915502222369F310915302EF
:10056000112309F049C034300AF448C030935302D3
:1005700020934E0210914F023BE0311B30934F020B
:100580003DC0009153020130BCF50AE54F7049F4BB
:1005900030916D0034FD33C000936D00C9E2D2E0AC
:1005A00032C0433059F0443091F03091340234FD80
:1005B00026C000933402C5E3D2E025C030916D021D
:1005C00034FD1DC000936D02CEE6D2E01CC0309118
:1005D000400234FD14C000934002C1E4D2E013C0D5
:1005E000052710E000C0000002BB1AC0052710E07C
:1005F000221F1DC010E021C04AE502C032ED432F8A
:10060000C4E1D0E032E011B31C60939A02B311BB95
:100610005CE020E865E320FF052702BB27951795DE
:100620001C3FF0F66695B8F7B1F720FF052702BB2F
:10063000279517951C3FD0F62795179517FF052787
:1006400000001C3F02BBB0F629913A9519F7037FD1
:1006500010915402110FC651D04002BB11F01093FB
:100660004C0210E81ABF086011B3137F402F437F7C
:1006700054E05A95F1F702BB11BB42BB5CCF81E05D
:10068000089581E008950C94410308950C94450366
:100690001F93CF93DF9300D000D01F92CDB7DEB76A
:1006A00049835A836B833091FC0089819A8131118F
:1006B00014C0662359F0222349F00E941F13182FFB
:1006C000682F89819A810E94C81203C00E94F31288
:1006D000182F69817A81812F04C00E941F136981BC
:1006E0007A810F900F900F900F900F90DF91CF9124
:1006F0001F910C94FC03FC01262F408151816281E3
:10070000738184810C944803CF93DF93EC0160E004
:100710000E947B03BE01DF91CF910C9446030E949F
:10072000C2150E945714811102C00E94F7140C9444
:1007300015060C94110608950C949B0381E008950E
:100740000C949E03CF93C82F0E949C038C2F0E9471
:10075000A003CF91089508950E94D10D0E94AB038C
:100760002FEF84E39CE0215080409040E1F700C0EF
:1007700000000C94AD150F931F93CF93DF93EC0102
:1007800061E00E947B038C01BE010E944303882329
:1007900049F1BE01C8010E94C907882319F1BE01B1
:1007A000C8010E941B088823E9F0BE01C8010E940D
:1007B00046098823B9F08A81882369F001158CE500
:1007C000180731F00E3D1C4531F40E94F7140AC0A1
:1007D0000E94AC0307C0CE01DF91CF911F910F9112
:1007E0000C943F0380E0DF91CF911F910F9108950A
:1007F00080E090E0089508952BE4829FC0011124C9
:10080000FC012FE0729FE00DF11D1124E60FF11D98
:10081000EE0FFF1FE057FF4F859194910895880FC9
:10082000991FFC01EE5AFD4F859194910895CF9345
:10083000DF930E94FC030E942905EC01811590457D
:1008400008F043C0C11580E4D80708F0CBC0C03E13
:10085000D10528F5C03CD10508F0B3C0C83AD10590
:1008600078F4C53AD10508F0A4C0C130D10509F427
:10087000ECC008F4E8C0C430D10508F0E6C0E3C01D
:10088000CF3BD10508F0DFC0C85AD0E0CC0FDD1F48
:10089000C259DF4F0990D881C02DD464D6C0C1158C
:1008A00090E2D90750F4C11521E0D20708F0CDC07D
:1008B000C83ED10508F4C9C0C6C0C11580E3D80739
:1008C00008F086C0CE019F707FC0C11595E5D9079D
:1008D00008F043C0C11524E5D20708F09AC0C1153D
:1008E00082E5D80708F5C11591E5D90708F07DC064
:1008F000CE0174E0969587957A95E1F783709C2FE9
:10090000937021E030E002C0220F331F9A95E2F786
:100910003C68382BCF70C695C69580E2C89FE00131
:100920001124C22BD32B91C09E01237033278C2F0F
:1009300086958695C115D34508F05CC0C1E0D0E02E
:1009400002C0CC0FDD1F2A95E2F720E2829FC00192
:100950001124C82BD92BDC6878C0C11529E5D20732
:10096000A0F4C11588E5D80708F058C0C11596E570
:10097000D90708F068C08C2F0E94BD058F71C82F61
:10098000D0E0DC2FCC27D06260C0C1152AE5D207A9
:1009900008F449C0CE0190568115904208F053C02A
:1009A0008D2F8F710E94BD05DD27D0628F71D82BEE
:1009B0004CC0C55AD0E0C456DF4FC881D0E0D064E7
:1009C00044C0CE01805C91090E940F04EC013DC03F
:1009D000CE019927D3FF03C0EC01D86C36C0EC01DF
:1009E000D06C33C0DF70D06A30C0DC2FCC27C16F31
:1009F000D06A2BC0C1E0D0E002C0CC0FDD1F2A9529
:100A0000E2F720E2829FC0011124C82BD92BDA68BB
:100A10001CC0DC2FCC27C46FD06A17C0DC2FCC27BA
:100A2000C06FD06A12C08C2F8F700E94BD0594E0F9
:100A3000D695C7959A95E1F7CF70D0E0DC2FCC27FB
:100A4000D069C82B02C0C0E0D0E0CE01DF91CF91C9
:100A500008958238910569F1B0F48133910509F464
:100A60006DC048F48932910509F463C08A3291055A
:100A700009F469C008958533910509F455C0893397
:100A80009105B9F00895833E910569F138F4803EEF
:100A90009105B1F0823E910509F10895863E9105D8
:100AA000A9F1873E9105B9F1843E910509F064C032
:100AB00023C02091270220FD4FC021FD4DC0089585
:100AC0008091270280FD44C08091280280FF44C0AD
:100AD0008091270284FD42C083EE4DC080912702A1
:100AE00082FF38C0F5CF8091270282FD33C080910C
:100AF000280280FD31C0ECCF8091280281FF32C0F6
:100B00008091270284FD2AC087EE35C0809127029C
:100B100083FF26C0F5CF8091270283FD21C08091FD
:100B2000280281FD1FC0ECCF8091270285FD1CC0EB
:100B30001DC08091270285FD19C016C08091270233
:100B400086FD16C017C08091270286FD13C010C015
:100B500089E311C082EE0FC080EE0DC080E00BC0B3
:100B600086EE09C084EE07C089E205C085E303C0B4
:100B70008AE201C081E390E008959091270292FFFC
:100B80000DC0282F2871283019F4877F846006C093
:100B9000282F2471243011F48B7F886093FF0DC0BF
:100BA000282F2871283119F4877E846106C0282FE8
:100BB0002471243111F48B7E88612091280220FF5A
:100BC0000DC0382F3871383019F4877F816006C026
:100BD000382F3171313011F48E7F886021FF0DC0C4
:100BE000282F2871283119F4877E816106C0282FAB
:100BF0002171213111F48E7E886194FD877E0895E4
:100C0000E82FF0E0EE0FFF1FE75EFD4F808191813E
:100C10000895089580EA8A95F1F7089508950C944F
:100C20000E060C940F060C940E060C941306CF932C
:100C3000DF93AEEAB0E043EB50E061E070E08D910D
:100C4000E82FE295EF70F0E021A98F70EB0102C070
:100C5000CC0FDD1F8A95E2F7CE019C2F9095922351
:100C600091AB92A9892B82AB4A175B0741F7AFE999
:100C7000B0E04EEA50E061E070E08D91E82FE2953F
:100C8000EF70F0E021A98F70EB0102C0CC0FDD1FE7
:100C90008A95E2F7CE019C2F9095922391AB92A971
:100CA000892B82AB4A175B0741F7EFE0F2E0A9E13D
:100CB000B2E089E192E0119211921D921D928E177D
:100CC0009F07C9F785E00E94F606DF91CF910C944B
:100CD0008F036F927F928F929F92AF92BF92CF922B
:100CE000DF92EF92FF920F931F93CF93DF938EEAE1
:100CF000C82E80E0D82E0FE012E099E1A92E92E0F4
:100D0000B92E712C88248394912CF60181916F0166
:100D1000C82FC295CF70D0E099A98F70740101C01F
:100D2000EE0C8A95EAF7892F8E2989AB8AA96E2C59
:100D3000609486218AAB0E940A06EFE9F0E040E069
:100D400050E020E030E06191A62FA295AF70B0E0B6
:100D5000D0968C9190E06F7002C0959587956A95BA
:100D6000E2F780FD08C0C401042E02C0880F991F5D
:100D70000A94E2F702C080E090E0282B392B4F5F05
:100D80005F4F4F305105F9F689A9682269AA8AA9EF
:100D9000E82AEAAAF801808191812817390721F011
:100DA0003183208381E001C080E0782A0E5F1F4FED
:100DB000A016B10609F0A9CF272D45E069E172E040
:100DC0008FE092E00E94F7060E949903872DDF9141
:100DD000CF911F910F91FF90EF90DF90CF90BF9038
:100DE000AF909F908F907F906F9008950895FF929D
:100DF0000F931F93CF93DF93F82E092F162FD72F22
:100E0000C42F222349F081E08093E6000E946C15F4
:100E10009093E5008093E4008091E6008823D9F068
:100E20008091E4009091E5000E947815069798F073
:100E3000EF2DF02FA12FBD2F80E090E04C2F50E040
:100E40008417950734F4219131912D933D930196A8
:100E5000F7CF1092E600DF91CF911F910F91FF9095
:100E60000895AF92BF92CF92DF92EF92FF920F93CD
:100E70001F93CF93DF937C015B01C42FD22FFC0122
:100E800082818823F9F04093E9000E946C159093C9
:100E9000E8008093E70080E28C0F883008F06EC095
:100EA000C77081E001C0880FCA95EAF7DF91CF9142
:100EB0001F910F91FF90EF90DF90CF90BF90AF9078
:100EC0000C94500B8091E900481335C08091E700E5
:100ED0009091E8000E9478156C01B701C5010E944D
:100EE0008A10C816D90638F510E21D0FCD17B9F0D3
:100EF00080E28C0F883040F4C77081E001C0880F19
:100F0000CA95EAF70E94570B183058F581E09D2FDB
:100F1000977001C0880F9A95EAF70E94500B802FB6
:100F20000E943D0B183050F5D77081E001C0880F4A
:100F3000DA95EAF70AC080E28C0F8830F8F4C770BF
:100F400081E001C0880FCA95EAF7DF91CF911F9128
:100F50000F91FF90EF90DF90CF90BF90AF900C94E7
:100F6000570B802FDF91CF911F910F91FF90EF9042
:100F7000DF90CF90BF90AF900C943D0BDF91CF915D
:100F80001F910F91FF90EF90DF90CF90BF90AF90A7
:100F900008950F939C01CB01233F4CE5340731F1B9
:100FA00088F4283DFCE53F07D9F0293D4CE534079E
:100FB00079F1273D3C45A9F506E221EE41EE67EDCA
:100FC0007CE52BC0253FFCE53F07E1F0A8F0263F7C
:100FD0003C4539F507E225EE46EE66EF7CE51DC09F
:100FE00007E225EE45EE68ED7CE517C006E221EE4E
:100FF00040EE63EF7CE511C007E225EE44EE64EFBE
:101000007CE50BC006E221EE42EE65EF7CE505C013
:1010100008E221E045EE69ED7CE50E94310780E0C1
:1010200008C0FC018281882319F01092E90001C0F8
:1010300081E00F910895CF93DF93EC01FB01828152
:10104000882309F41FC1C230FCE5DF0708F41BC187
:10105000C6319CE5D90738F09E012A5F3C4529300E
:10106000310508F010C10E946A1490932802809301
:101070002702C031ECE5DE0709F4C3C008F041C027
:10108000C8308CE5D80709F49AC0F0F4C430ECE518
:10109000DE0709F487C068F4C2308CE5D80709F48C
:1010A00077C0C330DC4509F0E3C08091270282603D
:1010B00076C0C630ECE5DE0709F46EC008F07BC0F0
:1010C0008091270288606BC0CC308CE5D80709F48A
:1010D00085C068F4CA30ECE5DE0709F474C008F096
:1010E00079C00E94D10D80912702806858C0CE300F
:1010F0008CE5D80709F476C008F07FC080912702FC
:101100008BC0CB3FECE5DE0709F44FC018F5C331C7
:101110008CE5D80709F47DC078F4C131ECE5DE0731
:1011200009F473C0C231DC4509F0A2C00E94D10DA0
:10113000809127028F7733C0C5318CE5D80709F439
:1011400072C008F486C0CA3FDC4509F091C08091A6
:1011500028023EC0CF3FFCE5DF0709F45FC058F42A
:10116000CD3F9CE5D90709F444C008F43FC0809105
:10117000280282602DC0C130FDE5DF0709F475C08B
:1011800008F45DC0C230DD4509F072C080E06EC079
:1011900080912702816003C0809127028061809343
:1011A000270266C08091270211C0809128028260C8
:1011B000809328025DC0809127028062F0CF8091E9
:1011C00027028064ECCF8091270288608460E7CF9B
:1011D0008160EECF809127028E7FE1CF8091270240
:1011E0008D7FDDCF80912702877FD9CF8091280224
:1011F00018C0809128028D7FDBCF809127028F7EDF
:10120000CECF809127028F7DCACF809127028F7B1E
:10121000C6CF80912702877F8B7FC1CF8091280224
:101220008D7F8E7FC5CF8091270282FB222720F9F8
:1012300091E0922790FB82F990FB83F9B0CF8091E7
:101240002802982F909591708E7F892B90FB81F9C1
:10125000AFCF0E94D10D8091270287FB222720F972
:1012600091E0922790FB87F99ACF81E00E94F914D0
:1012700080912702909128020E947B140E94D10D38
:1012800080E001C081E0DF91CF910895CF93DF939B
:1012900086319C4541F5EB010E94A013982F8A816D
:1012A0002091600030916100882379F09A7A81E082
:1012B00009F480E08093EA00911102C069E201C064
:1012C00065E3C9010E9440150AC08091EA008111BE
:1012D00002C069E201C065E3C9010E9442150E9493
:1012E000EE1380E001C081E0DF91CF9108959093EB
:1012F000F0008093EF000895E091EF00F091F0008E
:10130000309721F00190F081E02D099480E008955C
:10131000E091EF00F091F000309721F00280F3812E
:10132000E02D099408952091ED003091EE002817EA
:10133000390771F09093EE008093ED00E091EF009B
:10134000F091F000309721F00680F781E02D0994AC
:1013500008952091EB003091EC002817390771F0C7
:101360009093EC008093EB00E091EF00F091F0009F
:10137000309721F00084F185E02D0994089584B719
:10138000806884BF84B7806884BF089508950C94F2
:10139000C6090C94C7090C94C6090C94C6090E948E
:1013A000BF090E94CB090C94C90981E008950C94EF
:1013B000D5090E9465150E9417060E94D6150C9447
:1013C000CD097F928F929F92AF92BF92CF92DF9280
:1013D000EF92FF920F931F93CF93DF93CDB7DEB7BA
:1013E0002A970FB6F894DEBF0FBECDBF0E946906E4
:1013F0000E94D709811111C08FEF89838A831B82D4
:101400000E946C158160782F9D838C8349815A815D
:101410006B818D810E948F0A4FC042EFA42E40E065
:10142000B42E00E010E0702E802F0E9400066C01A8
:10143000F501819091905F0188269926811491048D
:1014400031F40F5F1F4F0530110569F7D5CF80913B
:101450007C0181FD0E94090680E0EE24E394F12CDA
:1014600094012E213F21232B09F18E837F82CE20F0
:10147000DF2081E0CD2809F480E088870E946C1588
:101480008160782F9A8789874E815F8168858A85F8
:101490000E948F0A000F111FF801EE50FF4F80814C
:1014A0009181E826F926F182E08206C08F5FEE0C7A
:1014B000FF1C8F30A9F6C5CF0E947C099091F100E6
:1014C0008917C9F00E947C098093F1002A960FB613
:1014D000F894DEBF0FBECDBFDF91CF911F910F916A
:1014E000FF90EF90DF90CF90BF90AF909F908F9044
:1014F0007F900C94A2032A960FB6F894DEBF0FBE1D
:10150000CDBFDF91CF911F910F91FF90EF90DF90B2
:10151000CF90BF90AF909F908F907F900895CF9382
:10152000DF93CDB7DEB72B970FB6F894DEBF0FBEB3
:10153000CDBF4F83588769877A878B87DE011196E5
:1015400086E0FD0111928A95E9F785E0FE01379664
:1015500001900D928A95E1F749815A816B817C81D6
:101560008D819E810E948D102B960FB6F894DEBF60
:101570000FBECDBFDF91CF910895FC018081918195
:101580000E9461130895CF93882309F448C0C82F9F
:101590008CEF8C0F813AD0F46C2F80916000909189
:1015A00061000E940A15882349F06C2F8091600029
:1015B000909161000E9442150E94EE136C2F809161
:1015C0006000909161000E9440150CC080E28C0F79
:1015D000883058F4C77081E001C0880FCA95EAF7D7
:1015E0000E94A313CF910C94EE13EBE5EC0FE330C4
:1015F00040F4F0E0EF51FF4F808190E0CF910C94E8
:101600009309C85AC73158F4EC2FF0E0EE0FFF1FD2
:10161000ED54FF4F80819181CF910C94A909CF9116
:101620000895882349F1682F8CEF860F813A38F4AA
:1016300080916000909161000E9442150CC080E290
:10164000860F883050F4677081E001C0880F6A957A
:10165000EAF70E94A9130C94EE138BE5860F8330F2
:1016600020F480E090E00C949309685A673120F4EC
:1016700080E090E00C94A9090895CF93C82F0E94B0
:10168000C30AC93349F42FEF87EE93E0215080401D
:101690009040E1F700C000008C2FCF910C94110B0B
:1016A000882321F00E94A3130C94EE13089588233D
:1016B00021F00E94A9130C94EE130895CF92DF92AB
:1016C000EF92FF920F931F93CF93DF937C01062F2E
:1016D000C72FFC01158112951F70D281D1110E9474
:1016E000C0130E949913882399F0DD2389F08C2F71
:1016F000807F803421F080E2800F883048F082E0E3
:101700000E9438140E94991391E0D82ED92601C066
:10171000D12CCC2EC2948FE0C8228C2D90E0FC01FD
:10172000E65DFF4F0C94EE188C2F807FCF708823DE
:1017300011F0C295C07FDD2399F0CC2309F482C15A
:1017400080E2800F883010F0011104C08C2F0E94BD
:10175000A31303C08C2F0E94B3130E94EE1372C117
:10176000802F0E94110BCC2309F491C180E2800FDD
:10177000883010F0011104C08C2F0E94A91303C0FF
:101780008C2F0E94B9130E94EE1381C18C2F807F91
:10179000CF70803211F0C295C07F002319F0013064
:1017A000C9F022C0DD2371F0112341F0113031F472
:1017B0000E94D3138C2B0E94DB1369C10E94D313A8
:1017C0008C2B1DC0112319F0113009F460C10E9447
:1017D000E41325C0DD2321F0163008F058C10EC0F7
:1017E000153008F054C11BC0DD2361F0112331F026
:1017F000F701858180FF26C18F7085838C2F0E9421
:10180000500B45C1112359F0093309F02CC1FFEFEA
:1018100027EE83E0F15020408040E1F722C18C2F79
:101820000E94570B34C18C2F86958695837019F0D2
:10183000813061F02CC1DD2321F0802F9C2F93702B
:1018400002C080E090E00E94930929C1DD2321F0CD
:10185000802F9C2F937002C080E090E00E94A90925
:101860001EC18C2F837009F045C0D11114C1402FC7
:10187000429546954770440F440F602F6F70862F36
:1018800090E0A0E0B0E0042E04C0880F991FAA1FCA
:10189000BB1F0A94D2F704FF10C00FE010E020E055
:1018A00030E004C0000F111F221F331F4A95D2F7EA
:1018B000009510952095309503C000E010E0980148
:1018C000C695C695C370BC01CD01602B712B822BD0
:1018D000932BC23049F058F4C13019F00E94DE1148
:1018E000DAC00E94CC11D7C00E94F011D4C00E946F
:1018F000CA11D1C0DD2319F08C2F817001C08695EB
:10190000882309F4C8C0402F429546954770440F7C
:10191000440F602F6F70862F90E0A0E0B0E0042E9F
:1019200004C0880F991FAA1FBB1F0A94D2F704FF97
:1019300010C00FE010E020E030E004C0000F111FE5
:10194000221F331F4A95D2F70095109520953095A8
:1019500003C000E010E09801C695C695C370BC01B5
:10196000CD01602B712B822B932BC23049F058F4A0
:10197000C13019F00E94A3128EC00E9491128BC038
:101980000E94B51288C00E94041285C0CF70DD236A
:1019900039F08C2F0E942A12802F0E94500B7BC09E
:1019A000802F0E94570B8C2F0E944B1274C0023F55
:1019B00001F128F4003F41F0013FA1F03FC0033F97
:1019C000F9F0043F39F13AC0DD2341F0153008F059
:1019D0005EC08C2F8F710E94701259C0163008F0B3
:1019E00056C0F7CFDD2339F08C2F8F710E942A1259
:1019F0004EC0DD23C9F38C2F8F710E944B1247C05C
:101A0000DD2329F08C2F8F710E94151240C00E9497
:101A100010123DC0DD2349F0CF718C2F0E942A1295
:101A200063E08C2F0E94231432C081E00E9438149E
:101A3000123068F182E00E94381429C0DD2331F0B1
:101A4000112391F2802F0E94C30A21C0112399F221
:101A5000093349F49FEFE7EEF3E09150E040F040A6
:101A6000E1F700C00000802F0E94110B10C04C2F26
:101A70004F70602FC7010E94F8030E943B110FC0F6
:101A80004C2F4F70602FC7010E94FB0308C088EFE6
:101A90008C0D843020F40E947C090E94A203DD207A
:101AA000C9F00E94951380FD15C0F70112820E94B3
:101AB0008F130E942A12C7010E948B0D0E948F1360
:101AC000DF91CF911F910F91FF90EF90DF90CF901A
:101AD0000C944B12DF91CF911F910F91FF90EF90DB
:101AE000DF90CF9008950F931F93CF93DF93EC0176
:101AF000688179818A810E946C138C010E94C712CF
:101B00000E94B811B801CE010E945E0BDF91CF9107
:101B10001F910F910895CF93DF93EC0198818981F4
:101B20002B813C81232B31F08F3F31F481E09F3FAB
:101B300019F403C081E001C080E080FD19C0CE012E
:101B40000E94BB0381110CC00E949913882381F06D
:101B50008A81882369F082E0DF91CF910C94381458
:101B6000CE010E94730DCE01DF91CF910C948403BE
:101B7000DF91CF9108950E94C0130E94D0130E945C
:101B8000EE1380E090E00E94930980E090E00C94D6
:101B9000A90980916000909161000E9444150C9405
:101BA000BB0D0E94B0130C94C90DE92FE295EF70A4
:101BB0004E2F50E0FA013297EE30F105B0F4E65CBA
:101BC000FF4F0C94EE18803F91F018F4883E68F4B3
:101BD0000EC0843F51F40BC0883E48F0813F29F489
:101BE00006C093FB882780F9089580E0089581E07E
:101BF00008950E9461130E94D50D0895CF93DF933D
:101C000000D000D01F92CDB7DEB70F900F900F908D
:101C10000F900F90DF91CF910895CF93DF9300D075
:101C200000D000D0CDB7DEB726960FB6F894DEBF51
:101C30000FBECDBFDF91CF9108951F93CF93DF9358
:101C4000C091FD0016E08091FE00C81799F0D0E029
:101C50001C9FF0011D9FF00D1124E150FF4F4081AA
:101C6000518162817381848195810E940D0E21963C
:101C7000C770E9CFDF91CF911F91089540912F0157
:101C800050913001609131017091320180913301A6
:101C9000909134010C940D0E0F931F93CF93DF930B
:101CA0008091340182958F7009F05DC0809131017F
:101CB000882309F458C08091FD001091FE006091C6
:101CC0002F0170913001C0913201D091330191E028
:101CD0006F3F09F090E0292F06E0811709F443C017
:101CE000209721F07F3F21F030E003C031E001C0B8
:101CF000322F90E030FD34C0089FF001099FF00DB5
:101D00001124DF01A150BF4F11963C911197371359
:101D100027C03C91361324C012963C911297311182
:101D20001FC013964D915C9114974C1B5D0B483C62
:101D30005105B0F4809134018F708061809334013B
:101D4000EC5FFE4F80818F70806180838FE291E035
:101D50000E948B0DDF91CF911F910F910C941D0E5E
:101D600001968770BACFDF91CF911F910F9108959F
:101D70009F92AF92BF92CF92DF92EF92FF920F931A
:101D80001F93CF93DF93CDB7DEB761970FB6F8946B
:101D9000DEBF0FBECDBF8C0185E0F801DE011D96D0
:101DA00001900D928A95E1F7F80140815181E2801E
:101DB00090912F01609130012091320130913301D7
:101DC0002115310531F06F3F31F481E09F3F19F467
:101DD00003C081E001C080E0F82FF1709F2E80FDEC
:101DE00046C1F801A380B4808FE2C82E81E0D82ECE
:101DF000F0903101F501E21BF30BFF2009F4DFC085
:101E000080913401E83CF10508F09BC0282F207F29
:101E100009F052C0561313C0491311C0FE2CE11033
:101E20000EC08F708061809334010E943E0EC60107
:101E30000E948B0D80913401F801858358C1AB2835
:101E400031F05F3F31F481E04F3F19F403C081E08E
:101E500001C080E080FD03C081E08E2502C080E0EB
:101E600090E0F82FF170FF2E80FF1CC08091FD00E4
:101E70002091FE0036E0821709F417C190E0389FE8
:101E8000F001399FF00D1124E150FF4F618156138D
:101E900006C06081461303C06281E61203C001964A
:101EA0008770E9CFFE2CEE2009F421C18091340126
:101EB0008160809334015AC0561306C0491304C090
:101EC000E11002C0F8019FC04D875E878D859E8519
:101ED0000E94F90D882379F1EE2069F120913401F7
:101EE000822F82958F7090E0029774F080912F017D
:101EF0009091300198878F831986BB86AA862C879C
:101F0000CE0107960E948B0D86E0F801AFE2B1E0AA
:101F100001900D928A95E1F70E944C0E0E943E0EB0
:101F20000DC0561729F14D875E878D859E850E94CD
:101F3000F90D81112CC0C8010E948B0DFF24F39470
:101F4000D6C0282F207F69F77A2DB98AA88A6E2DEE
:101F500089890E94FE0D8FE291E00E948B0D86E040
:101F6000F60111928A95E9F70E943E0EF12CBFC04E
:101F70004913D9CFE110D7CFF8018583C8010E945A
:101F80008B0D86E0F60111928A95E9F7B0C0EE203C
:101F900091F220913401822F82958F7090E0029708
:101FA0000CF4B2CF80912F01909130019A838983F4
:101FB0001B82BD82AC822E83CE010196A3CFE83C6A
:101FC000F10508F047C0FE2CEE2009F4B4CF5613FB
:101FD00030C049132EC02091340120FD21C0822F32
:101FE00082958F70482F50E041155105C9F0F801D6
:101FF00025834F30510541F08F5F982F9295907F48
:10200000822F8F70892B8583C8010E948B0D86E0FB
:10201000F801AFE2B1E001900D928A95E1F742C07C
:1020200086E0F801AFE2B1E001900D928A95E1F708
:102030005EC04D875E878D859E850E94F90D81115A
:1020400063CF80913401816080933401C8010E9484
:102050008B0D4DC07A2DB98AA88A6E2D89890E9470
:10206000FE0D86E0F60111928A95E9F71BC0EE207D
:1020700009F461CF4D875E878D859E850E94F90D9D
:10208000F82E882309F457CF86E0F801AFE2B1E0DB
:1020900001900D928A95E1F78FE291E00E94BD0ACE
:1020A0000E944C0E0E943E0E22C04D875E878D8599
:1020B0009E850E946113292F22952F70223028F4CB
:1020C0009F7039F0811105C00BC0243028F49F7037
:1020D00049F4805E883020F0C8010E948B0D9F2C4F
:1020E000F92C05C0F8019581907F99F7F9CF8F2DD4
:1020F00061960FB6F894DEBF0FBECDBFDF91CF91D2
:102100001F910F91FF90EF90DF90CF90BF90AF9015
:102110009F90089588EC90E008951F93CF93DF93EC
:10212000CDB7DEB72C970FB6F894DEBF0FBECDBF8C
:102130004F83588769877A878B879C87CE0107965C
:102140000E94B80E8823D1F09F8188852A853B851F
:10215000232B31F08F3F31F481E09F3F19F403C00E
:1021600081E001C080E080FD47C04F8158856985CE
:102170007A858B859C850E940D0E3EC086E0FE010F
:102180003796DE01119601900D928A95E1F7FF8155
:10219000E8856A857B856115710531F0EF3F31F483
:1021A00081E0FF3F19F403C081E001C080E080FDC1
:1021B00023C02091FE0030E0C90101968770992765
:1021C0004091FD0050E084179507F1F1F983EA830F
:1021D0007D836C8396E0929FD001939FB00D112474
:1021E000A150BF4FFE01319601900D929A95E1F7F3
:1021F0008093FE000E941D0E16E08091FD009091DC
:10220000FE00891771F1189FC001112481509F4F62
:102210000E94B80E882329F1E091FD001E9FF00175
:102220001124E150FF4F408151816281738184818B
:1022300095810E940D0E8091FD0090E001968770BF
:1022400099278093FD00D9CF0E94D10D1092FE00F6
:102250001092FD00EFE2F1E086E0DF011D928A9529
:10226000E9F72C960FB6F894DEBF0FBECDBFDF9115
:10227000CF911F910895EF92FF920F931F93CF93E9
:10228000DF938C01892B09F46CC0F12CEE24E394CC
:10229000E8012196F8018491843740F4843008F0F5
:1022A00051C0813081F0823019F15BC0853709F46B
:1022B00044C0A8F19CE7980F903708F052C08F7780
:1022C0000E94110B41C00E5F1F4FFE01849190E2EE
:1022D000980F983050F48770FE2D01C0FF0F8A953B
:1022E000EAF78F2F0E94C31314C00E94C30A2DC0A7
:1022F0000E5F1F4FFE01849190E2980F983060F4BA
:102300008770FE2D01C0FF0F8A95EAF78F2F0E947C
:10231000C9130E94EE1319C00E94110B16C00E5F64
:102320001F4FFE01C491CC2381F08FE99FE00197FC
:10233000F1F700C00000C150F6CF0E5F1F4FFE0145
:10234000F49003C00E94C30A8E018F2D882309F4E4
:102350009FCFEFE9FFE03197F1F700C00000815017
:10236000F5CFDF91CF911F910F91FF90EF900895DE
:10237000089508950C94B9110C94BA110E94BC11DF
:1023800060936B0170936C0180936D0190936E016B
:102390000C94BB0D0C94BE110F931F9300916B0115
:1023A00010916C0120916D0130916E01602B712BA9
:1023B000822B932B1F910F910C94BE110F931F939F
:1023C00000916B0110916C0120916D0130916E01B3
:1023D00060237123822393231F910F910C94BE11CC
:1023E0000F931F9300916B0110916C0120916D016F
:1023F00030916E0160277127822793271F910F91DB
:102400000C94BE110C94B9110E94021260936701E2
:10241000709368018093690190936A010C94BB0DDD
:1024200060E070E0CB010C9404120F931F9341E025
:1024300050E060E070E08A019B0104C0000F111FB2
:10244000221F331F8A95D2F7C901B8011F910F913E
:102450000C9404120F931F9341E050E060E070E091
:1024600004C0440F551F661F771F8A95D2F78091CD
:10247000670190916801A0916901B0916A018A0198
:102480009B01082B192B2A2B3B2BC901B8011F914B
:102490000F910C9404120F931F9341E050E060E001
:1024A00070E004C0440F551F661F771F8A95D2F74E
:1024B0004095509560957095809167019091680165
:1024C000A0916901B0916A018A019B010823192337
:1024D0002A233B23C901B8011F910F910C940412C8
:1024E0000F931F9341E050E060E070E004C0440FA0
:1024F000551F661F771F8A95D2F7809167019091CB
:102500006801A0916901B0916A018A019B010827C5
:1025100019272A273B27C901B8011F910F910C9455
:1025200004120F931F93009167011091680120918D
:10253000690130916A01602B712B822B932B1F91C3
:102540000F910C9404120F931F9300916701109147
:1025500068012091690130916A016023712382230F
:1025600093231F910F910C9404120F931F930091CA
:102570006701109168012091690130916A0160271B
:102580007127822793271F910F910C9404120895AD
:102590002FE0929F800D1124E82FE695E695E695B1
:1025A000877051E001C0550F8A95EAF785E0E89FF2
:1025B000F0011124EB5CFE4F20E030E070E0408140
:1025C000CB01022E02C0969587950A94E2F781709E
:1025D000819584278523842781932F5F3F4F253062
:1025E000310569F708952FE0929F800D1124682F1F
:1025F000669566956695982F977085E0689FB001FF
:10260000112440E050E080E0FB01E40FF51FEB5C9B
:10261000FE4F208130E0092E02C0369527950A949E
:10262000E2F721703327042E01C0220F0A94EAF743
:10263000822B4F5F5F4F4530510531F70895BF92B0
:10264000CF92DF92EF92FF920F931F93CF93DF937E
:102650008C01C0906701D0906801E0906901F09012
:102660006A0180916B0190916C01A0916D01B09114
:102670006E01C82AD92AEA2AFB2ACFE1D0E0D70185
:10268000C6010C2E04C0B695A795979587950A9418
:10269000D2F780FD04C0219790F7B12C07C0BC2E63
:1026A000B8018C2F0E9417040197A9F38B2DDF919D
:1026B000CF911F910F91FF90EF90DF90CF90BF903F
:1026C0000895CF93DF93EC010E941F13BE010E9477
:1026D0001704DF91CF9108951F93CF93DF93EB0100
:1026E0009091FC00992321F0CB010E94611313C04B
:1026F000882349F0CB010E941F13182F682FCE01A9
:102700000E94C81204C0CB010E94F312182FBE0110
:10271000812F0E941704DF91CF911F91089580911E
:102720006F01859585958595089580916F018770D6
:10273000089590916F01977081E009F480E0089509
:1027400080917B01089590917B01892B80937B017F
:102750000895809590917B01892380937B01089552
:1027600010927B01089590917A01892B80937A01D0
:102770000895809590917A01892380937A01089534
:1027800010927A01089590917901892B80937901B3
:102790000895809590917901892380937901089516
:1027A00010927901089580917001089508950C9414
:1027B000D6130C94D71390917001981721F0809341
:1027C00070010C94D913089580917001882329F029
:1027D0001092700180E00C94D9130895E09160008C
:1027E000F091610080917B018083E0916000F09125
:1027F0006100908180917A01892B8083E091600053
:10280000F0916100908180917901892B8083809182
:102810007001882381F0E0916000F0916100908167
:10282000892B808380916000909161000E94FE144A
:1028300081110E94E41380916000909161000C94DA
:1028400088090C94D61398E0899F90011124262BB7
:1028500020936F010E942A1280916F0185958595C2
:1028600085950C94211410926F0180E00C94211432
:1028700020916F018095822380936F01982F97702C
:1028800079F430E0482F082E000C550B241735073B
:1028900039F08595859585950E944B120C943314DB
:1028A00008956FEF7FEF80E090E00C941F1980E0B7
:1028B00090E00E94FC1821E08C3E9E4F09F020E041
:1028C000822F089582E090E00C94F41883E090E069
:1028D0000C94F418CF9384E090E00E94F418C82F71
:1028E00081E290E00E94F4182C2F30E0A901582BCF
:1028F000CA01CF910895CF93C92F682F84E090E04B
:102900000E9402196C2F81E290E0CF910C94021981
:10291000AB01BC018FE090E00C941319AB01BC013A
:1029200083E190E00C94131960E070E0CB010C940B
:102930008E1460E070E0CB010E9488140C94941413
:102940006CEE7EEF80E090E00E941F1960E082E074
:1029500090E00E94021960E083E090E00E9402197A
:1029600010926B0110926C0110926D0110926E0129
:1029700060E084E090E00E94021960E081E290E073
:102980000E94021960E085E090E00E94021960E078
:1029900086E090E00E9402196FEF87E090E00E94CD
:1029A000021940E050E0BA0188E090E00E9413195B
:1029B00060E08DE090E00E94021940E050E0BA0132
:1029C00088E190E00E94131960E087E190E00E94A6
:1029D000021940E050E0BA018CE190E00E94131926
:1029E00060E080E290E00E9402190C9499140C942B
:1029F000A014682F8EE090E00C940219FC0132962E
:102A000097E080E0915029F021912223D9F38F5F44
:102A1000F9CF0895662349F0FC013296089621917A
:102A2000621729F0E817F907D1F780E0089581E0EF
:102A300008959C01FC0132969FEF80E0419146177A
:102A400089F09F3F19F4411101C0982F8F5F8630A4
:102A5000A9F79F3F39F0F901E90FF11D97FDFA95AC
:102A60006283089508959C012A5F3F4FFC014281D3
:102A7000461301C01282019682179307B9F7089591
:102A80000C9419150C943315029626E0FC01119252
:102A90002A95E9F7089508950C944B150C944B155D
:102AA000CF930E944E150E9469060E944C15C0E00B
:102AB0008C2F0E940006892B29F4CF5FC530C1F707
:102AC00080E001C081E0CF9108958BE083BF8AEF61
:102AD0008CBF82E089BF08952FB7F89480912302BC
:102AE00090912402A0912502B09126022FBF089553
:102AF0009C014FB7F8948091230290912402A091F9
:102B00002502B09126024FBF821B930B0895789443
:102B10001F920F920FB60F9211248F939F93AF9332
:102B2000BF938091230290912402A0912502B0913D
:102B300026020196A11DB11D8093230290932402C9
:102B4000A0932502B0932602BF91AF919F918F91E0
:102B50000F900FBE0F901F90189598E088E10FB668
:102B6000F894A89581BD0FBE91BDA895F894D8E0C2
:102B7000CEE528E3299320E0299314BEFFCF0895E2
:102B80000C9451140E9469068FE39CE90197F1F7B8
:102B900000C000000E94690680E00E94000681FFDC
:102BA00004C00E94C0150C94AD1508950E945714DE
:102BB000811102C00E94F7140E94621480937C016C
:102BC0000E946A1490932802809327020E94661440
:102BD000682F70E080E090E00E94CA116091670168
:102BE000709168018091690190916A010C940212C0
:102BF0000F931F93CF93DF930E946C158C010E945B
:102C0000CF090E94EF160E9477090E94D3188B9A71
:102C100080E0815041F0A895EFE9FFE03197F1F7AE
:102C200000C00000F6CF8B987894FFEF20E732E0E9
:102C3000F15020403040E1F700C000000E94D90967
:102C4000C0E0DCE080915002882331F01092500205
:102C50000E946C158C0107C0C8010E947815069768
:102C600088F4C1110FC00E94DC178091560288239E
:102C700029F08091340284FD0E94E1090E94961699
:102C8000C0E0E0CF0E945015811102C0C1E0DACF50
:102C9000F89491B3939A892F8C6081BB82B38D276E
:102CA00082BB8FE7E8E3F1E08150E040F040E1F7DC
:102CB00000C0000082B38D2782BB91BB93987894AB
:102CC000E5CF80910E0208950895CF93DF9300D051
:102CD0001F92CDB7DEB790917F01981307C0209166
:102CE0007D0130917E012617370791F080937F0197
:102CF00070937E0160937D0189837B836A838091D9
:102D00006D0284FF05C063E0CE0101960E94D817D2
:102D10000F900F900F90DF91CF910895BC0184E048
:102D20000C946516BC0183E00C946516CF93DF9379
:102D3000CAE0D0E08091340284FF18C080918B01FA
:102D400090918C019817E1F028E0829FC001112436
:102D500068E083579E4F0E94D41780918B0190E0CA
:102D600001968F70992780938B010AC00E94DC170F
:102D70008FE99FE00197F1F700C000002197D1F69D
:102D8000DF91CF910895CF93DF93EC01A0918C0157
:102D9000B0E0CD0101968F70992720918B01281703
:102DA00079F093E0AA0FBB1F9A95E1F7A357BE4FA6
:102DB00098E0FE0101900D929A95E1F780938C01C5
:102DC0000E94DC170E94961688E0FE01A3E8B1E09D
:102DD00001900D928A95E1F7DF91CF91089582E6F7
:102DE00090E00895FC01808180768032A1F5818198
:102DF000813061F484819581892B69F583E891E0C4
:102E0000909352028093510288E00895823041F4F9
:102E10008DE092E0909352028093510281E00895F8
:102E20008A3021F4838180930D0215C0893099F492
:102E3000828193818115924081F484819581892BCF
:102E400061F481E080938201868197819093810172
:102E50008093800102C080E008958FEF0895209153
:102E6000800130918101232B71F02091820121306A
:102E700051F4FC01808180930E0210928101109226
:102E8000800181E008958FEF08950895FC019381FA
:102E90009330D9F068F4913081F0923009F060C03D
:102EA00082E592E090935202809351028BE3089561
:102EB000913281F19232F1F153C08DE892E090931A
:102EC00052028093510282E108958281813061F043
:102ED00040F0823089F0833009F042C08FE992E0FF
:102EE00013C087EC92E010C085EB92E09093520201
:102EF0008093510280E1089585EA92E09093520216
:102F0000809351028EE00895909352028093510273
:102F100084E008958281882329F0813009F58DE7C6
:102F200092E002C084E692E09093520280935102B4
:102F300089E0089584819581009751F0019781F48B
:102F40008BEC92E0909352028093510282E30895B9
:102F50008DEF92E0909352028093510280E40895A5
:102F600080E008951F93CF93DF93162FEA01288105
:102F700024FF05C0398128E82327298302C02AE5D8
:102F80002883212FFC01CE010296DC0131913D9373
:102F900021501216DCF3612F0E94FA011C5F188386
:102FA000DF91CF911F91089544E352E00C94B21742
:102FB0004DE652E00C94B217CF93DF936091530229
:102FC000635067FD93C080914F02CCE0D0E0C81BF6
:102FD000D109C95ADD4F80914E02803120F4CE01D3
:102FE0000E94451781C08D3209F06EC0683009F02B
:102FF0007BC083EC809329028AE580936D00109258
:103000004D028881807621F0CE010E94F21649C0DF
:103010009A81109232028981811106C01092330286
:1030200022E332E082E038C0853019F490935402F4
:1030300030C08630A1F48B81813041F0823031F094
:10304000833021F0813211F0823221F4CE010E94CE
:10305000461701C080E090E490934D0222C0883072
:1030600089F0893019F49093560213C08A3069F0C0
:103070008B3079F48BE48093350280936E028093D9
:10308000410207C026E532E002C022E332E081E0DF
:1030900003C022E332E080E03093520220935102D9
:1030A00009C08F3F39F4988197FD8E8190E8909305
:1030B0004D0207C09F81911104C09E81981708F4AA
:1030C000892F80936C0010C080914D0287FF0CC047
:1030D000CE010E942F178F3F21F48EE180936D0067
:1030E00003C0811110926C001092530280916D0008
:1030F00084FF4CC080916C008F3F09F447C0C82FFB
:10310000893008F0C8E08C1B80936C0090912902F4
:1031100088E8892780932902CC2359F180915102B4
:103120009091520220914D0226FF12C0A9E2B2E016
:103130002C2FAC0149525240FA01EA0FFB1FE491D7
:103140001196EC931197215011962111F5CF08C0DB
:10315000EAE2F2E0DC012C2F3D9131932150E1F7BE
:1031600001962FEF2C0F820F911D909352028093A6
:1031700051026C2F8AE292E00E94FA01CC5FCC30BF
:1031800019F08FEF80936C00C0936D0084E190B3D1
:103190009C7031F48150D9F71092540210924C0275
:1031A000DF91CF910895CF93DF9385B7886085BF76
:1031B0008BB780688BBFC4E3D2E08BE48983ADE634
:1031C000B2E011968C931197E0E4F2E081838AE5F6
:1031D00088838C938083DF91CF910895EE0FFF1F3A
:1031E0000590F491E02D0994E199FECF9FBB8EBB31
:1031F000E09A99278DB30895A8E1B0E042E050E04D
:103200000C942719262FE199FECF9FBB8EBBE09A25
:1032100001970DB2021631F02DBB0FB6F894E29A69
:10322000E19A0FBE08950396272F0E9403190E946A
:103230000219252F0E940319242F0C9403190196BB
:10324000272F0E9403190C940219DC01CB01FC0109
:10325000E199FECF06C0FFBBEEBBE09A31960DB2FE
:0E3260000D9241505040B8F70895F894FFCFFA
:10326E0071016116C316641692168E16FF5AE2008D
:10327E00E900EA00B500B600B700CD008301CC002E
:10328E008A019201940121022302240225022602C0
:10329E0027022A02B300B4006F00700081828301FE
:1032AE0005060730313233969594939291903435CA
:1032BE00363797E200E900EA00B500B600B700CD58
:1032CE00008301CC008A0192019401210223022481
:1032DE00022502260227022A02B300B4006F0070F4
:0432EE000081828356
:00000001FF
